:100000000C942A000C946F000C9493000C94B7008D
:100010000C9434000C9434000C9434000C94340090
:100020000C9434000C9434000C9434000C94340080
:100030000C9434000C9434000C9434000C94340070
:100040000C9434000C9434000C9434000C94340060
:100050000C94340011241FBECFE5D8E0DEBFCDBF25
:100060000E9442000C94DB000C94000081B392B318
:10007000806E92BB81BB089582B393B38F7193BBA3
:1000800082BB089581B392B3806E92BB81BB82B371
:1000900093B38F7193BB82BB85B796B7816096BFD0
:1000A00085BF85B796B78C6096BF85BF84B795B777
:1000B0008F7B95BF84BF8BB79CB7806E9CBF8BBF77
:1000C00080915F00909160008068909360008093C1
:1000D0005F0082B393B38F7193BB82BBFACF1F9241
:1000E0000F920FB60F9211242F933F938F939F93EC
:1000F000EF93FF9382B393B3806293BB82BB80E1A3
:1001000097E228EC30E0F9013197F1F70197D9F740
:10011000FF91EF919F918F913F912F910F900FBE83
:100120000F901F9018951F920F920FB60F921124E7
:100130002F933F938F939F93EF93FF9382B393B348
:10014000806493BB82BB80E197E228EC30E0F90148
:100150003197F1F70197D9F7FF91EF919F918F9127
:100160003F912F910F900FBE0F901F9018951F92E7
:100170000F920FB60F9211242F933F938F939F935B
:10018000EF93FF9382B393B3806893BB82BB80E10C
:1001900097E228EC30E0F9013197F1F70197D9F7B0
:1001A000FF91EF919F918F913F912F910F900FBEF3
:0A01B0000F901F901895F894FFCFF0
:00000001FF
